{
  "_format": "hh-sol-artifact-1",
  "contractName": "Staking",
  "sourceName": "contracts/Staking.sol",
  "abi": [
    {
      "inputs": [
        {
          "internalType": "address",
          "name": "_stakingToken",
          "type": "address"
        }
      ],
      "stateMutability": "nonpayable",
      "type": "constructor"
    },
    {
      "inputs": [
        {
          "internalType": "address",
          "name": "owner",
          "type": "address"
        }
      ],
      "name": "OwnableInvalidOwner",
      "type": "error"
    },
    {
      "inputs": [
        {
          "internalType": "address",
          "name": "account",
          "type": "address"
        }
      ],
      "name": "OwnableUnauthorizedAccount",
      "type": "error"
    },
    {
      "inputs": [],
      "name": "ReentrancyGuardReentrantCall",
      "type": "error"
    },
    {
      "anonymous": false,
      "inputs": [
        {
          "indexed": true,
          "internalType": "address",
          "name": "previousOwner",
          "type": "address"
        },
        {
          "indexed": true,
          "internalType": "address",
          "name": "newOwner",
          "type": "address"
        }
      ],
      "name": "OwnershipTransferred",
      "type": "event"
    },
    {
      "anonymous": false,
      "inputs": [
        {
          "indexed": true,
          "internalType": "address",
          "name": "user",
          "type": "address"
        },
        {
          "indexed": false,
          "internalType": "uint256",
          "name": "amount",
          "type": "uint256"
        }
      ],
      "name": "RewardClaimed",
      "type": "event"
    },
    {
      "anonymous": false,
      "inputs": [
        {
          "indexed": true,
          "internalType": "address",
          "name": "user",
          "type": "address"
        },
        {
          "indexed": false,
          "internalType": "uint256",
          "name": "amount",
          "type": "uint256"
        }
      ],
      "name": "Staked",
      "type": "event"
    },
    {
      "anonymous": false,
      "inputs": [
        {
          "indexed": true,
          "internalType": "address",
          "name": "user",
          "type": "address"
        },
        {
          "indexed": false,
          "internalType": "uint256",
          "name": "amount",
          "type": "uint256"
        }
      ],
      "name": "Withdrawn",
      "type": "event"
    },
    {
      "inputs": [
        {
          "internalType": "address",
          "name": "user",
          "type": "address"
        }
      ],
      "name": "calculateRewards",
      "outputs": [
        {
          "internalType": "uint256",
          "name": "",
          "type": "uint256"
        }
      ],
      "stateMutability": "view",
      "type": "function"
    },
    {
      "inputs": [],
      "name": "claimRewards",
      "outputs": [],
      "stateMutability": "nonpayable",
      "type": "function"
    },
    {
      "inputs": [],
      "name": "owner",
      "outputs": [
        {
          "internalType": "address",
          "name": "",
          "type": "address"
        }
      ],
      "stateMutability": "view",
      "type": "function"
    },
    {
      "inputs": [],
      "name": "renounceOwnership",
      "outputs": [],
      "stateMutability": "nonpayable",
      "type": "function"
    },
    {
      "inputs": [],
      "name": "rewardRate",
      "outputs": [
        {
          "internalType": "uint256",
          "name": "",
          "type": "uint256"
        }
      ],
      "stateMutability": "view",
      "type": "function"
    },
    {
      "inputs": [
        {
          "internalType": "uint256",
          "name": "amount",
          "type": "uint256"
        }
      ],
      "name": "stake",
      "outputs": [],
      "stateMutability": "nonpayable",
      "type": "function"
    },
    {
      "inputs": [
        {
          "internalType": "address",
          "name": "",
          "type": "address"
        }
      ],
      "name": "stakes",
      "outputs": [
        {
          "internalType": "uint256",
          "name": "amount",
          "type": "uint256"
        },
        {
          "internalType": "uint256",
          "name": "lastUpdate",
          "type": "uint256"
        },
        {
          "internalType": "uint256",
          "name": "rewardsAccumulated",
          "type": "uint256"
        }
      ],
      "stateMutability": "view",
      "type": "function"
    },
    {
      "inputs": [],
      "name": "stakingToken",
      "outputs": [
        {
          "internalType": "contract IERC20",
          "name": "",
          "type": "address"
        }
      ],
      "stateMutability": "view",
      "type": "function"
    },
    {
      "inputs": [],
      "name": "totalStaked",
      "outputs": [
        {
          "internalType": "uint256",
          "name": "",
          "type": "uint256"
        }
      ],
      "stateMutability": "view",
      "type": "function"
    },
    {
      "inputs": [
        {
          "internalType": "address",
          "name": "newOwner",
          "type": "address"
        }
      ],
      "name": "transferOwnership",
      "outputs": [],
      "stateMutability": "nonpayable",
      "type": "function"
    },
    {
      "inputs": [
        {
          "internalType": "uint256",
          "name": "amount",
          "type": "uint256"
        }
      ],
      "name": "withdraw",
      "outputs": [],
      "stateMutability": "nonpayable",
      "type": "function"
    }
  ],
  "bytecode": "0x608060405260b86003553480156200001657600080fd5b50604051620014883803806200148883398181016040528101906200003c919062000241565b33600073ffffffffffffffffffffffffffffffffffffffff168173ffffffffffffffffffffffffffffffffffffffff1603620000b25760006040517f1e4fbdf7000000000000000000000000000000000000000000000000000000008152600401620000a9919062000284565b60405180910390fd5b620000c3816200011360201b60201c565b506001808190555080600260006101000a81548173ffffffffffffffffffffffffffffffffffffffff021916908373ffffffffffffffffffffffffffffffffffffffff16021790555050620002a1565b60008060009054906101000a900473ffffffffffffffffffffffffffffffffffffffff169050816000806101000a81548173ffffffffffffffffffffffffffffffffffffffff021916908373ffffffffffffffffffffffffffffffffffffffff1602179055508173ffffffffffffffffffffffffffffffffffffffff168173ffffffffffffffffffffffffffffffffffffffff167f8be0079c531659141344cd1fd0a4f28419497f9722a3daafe3b4186f6b6457e060405160405180910390a35050565b600080fd5b600073ffffffffffffffffffffffffffffffffffffffff82169050919050565b60006200020982620001dc565b9050919050565b6200021b81620001fc565b81146200022757600080fd5b50565b6000815190506200023b8162000210565b92915050565b6000602082840312156200025a5762000259620001d7565b5b60006200026a848285016200022a565b91505092915050565b6200027e81620001fc565b82525050565b60006020820190506200029b600083018462000273565b92915050565b6111d780620002b16000396000f3fe608060405234801561001057600080fd5b50600436106100a95760003560e01c806372f702f31161007157806372f702f3146101405780637b0a47ee1461015e578063817b1cd21461017c5780638da5cb5b1461019a578063a694fc3a146101b8578063f2fde38b146101d4576100a9565b806316934fc4146100ae5780632e1a7d4d146100e0578063372500ab146100fc57806364ab867514610106578063715018a614610136575b600080fd5b6100c860048036038101906100c39190610cb9565b6101f0565b6040516100d793929190610cff565b60405180910390f35b6100fa60048036038101906100f59190610d62565b61021a565b005b6101046104a9565b005b610120600480360381019061011b9190610cb9565b61068a565b60405161012d9190610d8f565b60405180910390f35b61013e610770565b005b610148610784565b6040516101559190610e09565b60405180910390f35b6101666107aa565b6040516101739190610d8f565b60405180910390f35b6101846107b0565b6040516101919190610d8f565b60405180910390f35b6101a26107b6565b6040516101af9190610e33565b60405180910390f35b6101d260048036038101906101cd9190610d62565b6107df565b005b6101ee60048036038101906101e99190610cb9565b610a2e565b005b60046020528060005260406000206000915090508060000154908060010154908060020154905083565b610222610ab4565b80600460003373ffffffffffffffffffffffffffffffffffffffff1673ffffffffffffffffffffffffffffffffffffffff1681526020019081526020016000206000015410156102a7576040517f08c379a000000000000000000000000000000000000000000000000000000000815260040161029e90610eab565b60405180910390fd5b6102b03361068a565b600460003373ffffffffffffffffffffffffffffffffffffffff1673ffffffffffffffffffffffffffffffffffffffff1681526020019081526020016000206002018190555042600460003373ffffffffffffffffffffffffffffffffffffffff1673ffffffffffffffffffffffffffffffffffffffff1681526020019081526020016000206001018190555080600460003373ffffffffffffffffffffffffffffffffffffffff1673ffffffffffffffffffffffffffffffffffffffff168152602001908152602001600020600001600082825461038f9190610efa565b9250508190555080600560008282546103a89190610efa565b92505081905550600260009054906101000a900473ffffffffffffffffffffffffffffffffffffffff1673ffffffffffffffffffffffffffffffffffffffff1663a9059cbb33836040518363ffffffff1660e01b815260040161040c929190610f2e565b6020604051808303816000875af115801561042b573d6000803e3d6000fd5b505050506040513d601f19601f8201168201806040525081019061044f9190610f8f565b503373ffffffffffffffffffffffffffffffffffffffff167f7084f5476618d8e60b11ef0d7d3f06914655adb8793e28ff7f018d4c76d505d5826040516104969190610d8f565b60405180910390a26104a6610afa565b50565b6104b1610ab4565b60006104bc3361068a565b905060008111610501576040517f08c379a00000000000000000000000000000000000000000000000000000000081526004016104f890611008565b60405180910390fd5b6000600460003373ffffffffffffffffffffffffffffffffffffffff1673ffffffffffffffffffffffffffffffffffffffff1681526020019081526020016000206002018190555042600460003373ffffffffffffffffffffffffffffffffffffffff1673ffffffffffffffffffffffffffffffffffffffff16815260200190815260200160002060010181905550600260009054906101000a900473ffffffffffffffffffffffffffffffffffffffff1673ffffffffffffffffffffffffffffffffffffffff1663a9059cbb33836040518363ffffffff1660e01b81526004016105ed929190610f2e565b6020604051808303816000875af115801561060c573d6000803e3d6000fd5b505050506040513d601f19601f820116820180604052508101906106309190610f8f565b503373ffffffffffffffffffffffffffffffffffffffff167f106f923f993c2149d49b4255ff723acafa1f2d94393f561d3eda32ae348f7241826040516106779190610d8f565b60405180910390a250610688610afa565b565b600080600460008473ffffffffffffffffffffffffffffffffffffffff1673ffffffffffffffffffffffffffffffffffffffff16815260200190815260200160002060405180606001604052908160008201548152602001600182015481526020016002820154815250509050600081600001510361071057806040015191505061076b565b60008160200151426107229190610efa565b90506000640757b12c0082600354856000015161073f9190611028565b6107499190611028565b6107539190611099565b905080836040015161076591906110ca565b93505050505b919050565b610778610b03565b6107826000610b8a565b565b600260009054906101000a900473ffffffffffffffffffffffffffffffffffffffff1681565b60035481565b60055481565b60008060009054906101000a900473ffffffffffffffffffffffffffffffffffffffff16905090565b6107e7610ab4565b6000811161082a576040517f08c379a00000000000000000000000000000000000000000000000000000000081526004016108219061114a565b60405180910390fd5b6108333361068a565b600460003373ffffffffffffffffffffffffffffffffffffffff1673ffffffffffffffffffffffffffffffffffffffff1681526020019081526020016000206002018190555042600460003373ffffffffffffffffffffffffffffffffffffffff1673ffffffffffffffffffffffffffffffffffffffff16815260200190815260200160002060010181905550600260009054906101000a900473ffffffffffffffffffffffffffffffffffffffff1673ffffffffffffffffffffffffffffffffffffffff166323b872dd3330846040518463ffffffff1660e01b815260040161091f9392919061116a565b6020604051808303816000875af115801561093e573d6000803e3d6000fd5b505050506040513d601f19601f820116820180604052508101906109629190610f8f565b5080600460003373ffffffffffffffffffffffffffffffffffffffff1673ffffffffffffffffffffffffffffffffffffffff16815260200190815260200160002060000160008282546109b591906110ca565b9250508190555080600560008282546109ce91906110ca565b925050819055503373ffffffffffffffffffffffffffffffffffffffff167f9e71bc8eea02a63969f509818f2dafb9254532904319f9dbda79b67bd34a5f3d82604051610a1b9190610d8f565b60405180910390a2610a2b610afa565b50565b610a36610b03565b600073ffffffffffffffffffffffffffffffffffffffff168173ffffffffffffffffffffffffffffffffffffffff1603610aa85760006040517f1e4fbdf7000000000000000000000000000000000000000000000000000000008152600401610a9f9190610e33565b60405180910390fd5b610ab181610b8a565b50565b600260015403610af0576040517f3ee5aeb500000000000000000000000000000000000000000000000000000000815260040160405180910390fd5b6002600181905550565b60018081905550565b610b0b610c4e565b73ffffffffffffffffffffffffffffffffffffffff16610b296107b6565b73ffffffffffffffffffffffffffffffffffffffff1614610b8857610b4c610c4e565b6040517f118cdaa7000000000000000000000000000000000000000000000000000000008152600401610b7f9190610e33565b60405180910390fd5b565b60008060009054906101000a900473ffffffffffffffffffffffffffffffffffffffff169050816000806101000a81548173ffffffffffffffffffffffffffffffffffffffff021916908373ffffffffffffffffffffffffffffffffffffffff1602179055508173ffffffffffffffffffffffffffffffffffffffff168173ffffffffffffffffffffffffffffffffffffffff167f8be0079c531659141344cd1fd0a4f28419497f9722a3daafe3b4186f6b6457e060405160405180910390a35050565b600033905090565b600080fd5b600073ffffffffffffffffffffffffffffffffffffffff82169050919050565b6000610c8682610c5b565b9050919050565b610c9681610c7b565b8114610ca157600080fd5b50565b600081359050610cb381610c8d565b92915050565b600060208284031215610ccf57610cce610c56565b5b6000610cdd84828501610ca4565b91505092915050565b6000819050919050565b610cf981610ce6565b82525050565b6000606082019050610d146000830186610cf0565b610d216020830185610cf0565b610d2e6040830184610cf0565b949350505050565b610d3f81610ce6565b8114610d4a57600080fd5b50565b600081359050610d5c81610d36565b92915050565b600060208284031215610d7857610d77610c56565b5b6000610d8684828501610d4d565b91505092915050565b6000602082019050610da46000830184610cf0565b92915050565b6000819050919050565b6000610dcf610dca610dc584610c5b565b610daa565b610c5b565b9050919050565b6000610de182610db4565b9050919050565b6000610df382610dd6565b9050919050565b610e0381610de8565b82525050565b6000602082019050610e1e6000830184610dfa565b92915050565b610e2d81610c7b565b82525050565b6000602082019050610e486000830184610e24565b92915050565b600082825260208201905092915050565b7f496e73756666696369656e74207374616b656420616d6f756e74000000000000600082015250565b6000610e95601a83610e4e565b9150610ea082610e5f565b602082019050919050565b60006020820190508181036000830152610ec481610e88565b9050919050565b7f4e487b7100000000000000000000000000000000000000000000000000000000600052601160045260246000fd5b6000610f0582610ce6565b9150610f1083610ce6565b9250828203905081811115610f2857610f27610ecb565b5b92915050565b6000604082019050610f436000830185610e24565b610f506020830184610cf0565b9392505050565b60008115159050919050565b610f6c81610f57565b8114610f7757600080fd5b50565b600081519050610f8981610f63565b92915050565b600060208284031215610fa557610fa4610c56565b5b6000610fb384828501610f7a565b91505092915050565b7f4e6f207265776172647320746f20636c61696d00000000000000000000000000600082015250565b6000610ff2601383610e4e565b9150610ffd82610fbc565b602082019050919050565b6000602082019050818103600083015261102181610fe5565b9050919050565b600061103382610ce6565b915061103e83610ce6565b925082820261104c81610ce6565b9150828204841483151761106357611062610ecb565b5b5092915050565b7f4e487b7100000000000000000000000000000000000000000000000000000000600052601260045260246000fd5b60006110a482610ce6565b91506110af83610ce6565b9250826110bf576110be61106a565b5b828204905092915050565b60006110d582610ce6565b91506110e083610ce6565b92508282019050808211156110f8576110f7610ecb565b5b92915050565b7f416d6f756e74206d757374206265203e20300000000000000000000000000000600082015250565b6000611134601283610e4e565b915061113f826110fe565b602082019050919050565b6000602082019050818103600083015261116381611127565b9050919050565b600060608201905061117f6000830186610e24565b61118c6020830185610e24565b6111996040830184610cf0565b94935050505056fea2646970667358221220626edb01fc347f924c2b80fd2e93a42a648c0a40badd32765b8642a7bc587d2964736f6c63430008140033",
  "linkReferences": {},
  "deployedLinkReferences": {}
}